:100000000C9463000C948B000C948B000C94B30341
:100010000C94B3030C94B3030C948B000C948B00DE
:100020000C948B000C948B000C948B000C948B0024
:100030000C948B000C948B000C948B000C948B0014
:100040000C9469030C948B000C9475020C944F0271
:100050000C948B000C948B000C948B000C948B00F4
:100060000C948B000C948B000000000024002700EF
:100070002A0000000008000201000003040700003D
:1000800000000000000000000000250028002B00F8
:1000900000000000230026002900040404040404D6
:1000A0000404020202020202030303030303010227
:1000B00004081020408001020408102001020408F6
:1000C0001020EF0AE50A11241FBECFEFD8E0DEBFF3
:1000D000CDBF13E0A0E0B1E0E8EAFAE102C005908C
:1000E0000D92AE38B107D9F724E0AEE8B3E001C015
:1000F0001D92AD3CB207E1F710E0C2E6D0E004C0CB
:100100002197FE010E943C0DC136D107C9F70E941C
:10011000F0060C94470D0C940000FC01538D448DA7
:10012000252F30E0842F90E0821B930B541710F0A2
:10013000CF96089501970895FC01918D828D9817AF
:1001400061F0828DDF01A80FB11D5D968C91928DBB
:100150009F5F9F73928F90E008958FEF9FEF0895B8
:10016000FC01918D828D981731F0828DE80FF11D81
:10017000858D90E008958FEF9FEF0895FC01918D9C
:10018000228D892F90E0805C9F4F821B91098F7395
:100190009927089581E194E00E94BE0021E0892B17
:1001A00009F420E0822F0895FC01848DDF01A80F5F
:1001B000B11DA35ABF4F2C91848D90E001968F738F
:1001C0009927848FA689B7892C93A089B1898C91AE
:1001D00080648C93938D848D981306C00288F38974
:1001E000E02D80818F7D80830895EF92FF920F93A1
:1001F0001F93CF93DF93EC0181E0888F9B8D8C8DD3
:10020000981305C0E889F989808185FD24C0F62E00
:100210000B8D10E00F5F1F4F0F731127E02E8C8D99
:10022000E8120CC00FB607FCFACFE889F989808183
:1002300085FFF5CFCE010E94D400F1CF8B8DFE015A
:10024000E80FF11DE35AFF4FF0820B8FEA89FB891B
:100250008081806207C0EE89FF896083E889F9891F
:1002600080818064808381E090E0DF91CF911F9155
:100270000F91FF90EF900895CF93DF93EC01888D5D
:100280008823C9F0EA89FB89808185FD05C0A8899A
:10029000B9898C9186FD0FC00FB607FCF5CF808120
:1002A00085FFF2CFA889B9898C9185FFEDCFCE016A
:1002B0000E94D400E7CFDF91CF91089580E090E0D5
:1002C000892B29F00E94CA0081110C940000089526
:1002D0003FB7F8948091CF039091D003A091D103C0
:1002E000B091D20326B5A89B05C02F3F19F0019607
:1002F000A11DB11D3FBFBA2FA92F982F8827820FAC
:10030000911DA11DB11DBC01CD0142E0660F771FFB
:10031000881F991F4A95D1F708952091D5033091F0
:10032000D6032817390771F49091D3038091D40331
:10033000981741F0E091D303F0E0E257FC4F808141
:1003400090E008958FEF9FEF089508951F93CF9346
:10035000DF93DC015C962D913C915D972115310571
:1003600039F481E090E013969C938E9312973DC0F0
:100370005196ED91FC91529750969C915097892FF0
:1003800080951FB75E964C915E9741FB772770F979
:1003900041FD6095F8944081772311F0492B01C00D
:1003A00048234083E9012197F1F748E0508160FF3D
:1003B00002C0592B01C058235083E9012197F1F75E
:1003C0006695415099F7772321F0908189238083A6
:1003D00003C08081982B90831FBF5C968D919C9168
:1003E0005D970197F1F721E030E0C901DF91CF91EE
:1003F0001F9108952091D5033091D603281739070E
:1004000071F48091D4032091D30390E0805C9F4FDE
:10041000821B910960E470E00E94140D089580E051
:1004200090E008952091D5033091D603281739071D
:10043000B9F49091D3038091D403981789F0E09197
:10044000D303F0E0E257FC4F80812091D30330E0EA
:100450002F5F3F4F2F7333272093D30390E00895EE
:100460008FEF9FEF0895E091D503F091D603E81741
:10047000F90769F4A389B4899C91858980958923BA
:100480008C931092D6031092D50381E0089580E0FA
:100490000895089580E090E008950E94420D1F9213
:1004A0000F920FB60F9211242F933F934F935F93A8
:1004B0006F937F938F939F93AF93BF93EF93FF932C
:1004C00081E194E00E94D400FF91EF91BF91AF9140
:1004D0009F918F917F916F915F914F913F912F915C
:1004E0000F900FBE0F901F9018951F920F920FB68E
:1004F0000F9211242F938F939F93EF93FF93E0918B
:100500002104F09122048081E0912704F0912804D5
:1005100082FD12C0908180912A048F5F8F73209199
:100520002B04821751F0E0912A04F0E0EF5EFB4FBC
:10053000958F80932A0401C08081FF91EF919F9154
:100540008F912F910F900FBE0F901F90189590E0F4
:10055000FC01EE58FF4F3491FC01E255FF4F24910E
:10056000FC01E656FF4FE491EE2309F43BC0332330
:1005700039F1333091F038F43130A9F0323001F5EF
:1005800084B58F7D12C0373091F03830A1F034300F
:10059000B9F4809180008F7D03C0809180008F77B7
:1005A000809380000DC084B58F7784BD09C0809191
:1005B000B0008F7703C08091B0008F7D8093B00032
:1005C000F0E0EE0FFF1FEA57FF4FA591B4918FB7F0
:1005D000F894EC91611103C020952E2301C02E2BBD
:1005E0002C938FBF0895CF93DF9390E0FC01E255E9
:1005F000FF4F2491FC01E656FF4F8491882361F15F
:1006000090E0880F991FFC01E859FF4FC591D491E4
:10061000FC01EA57FF4FA591B491611109C09FB742
:10062000F8948881209582238883EC912E230BC037
:10063000623061F49FB7F8943881822F80958323CC
:100640008883EC912E2B2C939FBF06C08FB7F89414
:10065000E8812E2B28838FBFDF91CF9108958F9251
:100660009F92AF92BF92CF92DF92EF92FF926B0177
:100670007C010E9468014B015C01C114D104E104BA
:10068000F104F1F00E946801DC01CB01881999099D
:10069000AA09BB09883E9340A105B10570F321E08A
:1006A000C21AD108E108F10888EE880E83E0981E8E
:1006B000A11CB11CC114D104E104F10419F7DDCF70
:1006C000FF90EF90DF90CF90BF90AF909F908F9072
:1006D00008951F920F920FB60F9211242F933F93FC
:1006E0008F939F93AF93BF938091DF039091E0032B
:1006F000A091E103B091E2033091CE0323E0230FF8
:100700002D3720F40196A11DB11D05C026E8230F49
:100710000296A11DB11D2093CE038093DF03909319
:10072000E003A093E103B093E2038091CF039091A3
:10073000D003A091D103B091D2030196A11DB11DA8
:100740008093CF039093D003A093D103B093D203AF
:10075000BF91AF919F918F913F912F910F900FBEBD
:100760000F901F9018951F920F920FB60F921124A1
:100770002F933F934F935F936F937F938F939F93A9
:10078000AF93BF93EF93FF93E091D503F091D6031E
:10079000309709F451C0968DA685B785858591FF60
:1007A00004C09C91892329F447C09C91892309F0B6
:1007B00043C0A389B4899C918589809589238C93B2
:1007C000868997890197F1F7608D718DA685B78528
:1007D000558538E020E0CB010197F1F7822F90E0BA
:1007E00095958795282F4C91452309F02068315025
:1007F00091F7868D81FD20958091D40390E001963C
:100800008F7399273091D303381749F0A091D403FF
:10081000B0E0A257BC4F2C938093D40303C0868DC5
:100820008160868F828D938D0197F1F7A389B489BA
:100830009C918589892B8C93FF91EF91BF91AF910A
:100840009F918F917F916F915F914F913F912F91E8
:100850000F900FBE0F901F901895CF92DF92EF92DE
:10086000FF920F931F93CF93DF936C017A018B015B
:10087000C0E0D0E0CE15DF0589F0D8016D918D0183
:10088000D601ED91FC910190F081E02DC601099512
:10089000892B11F47E0102C02196ECCFC701DF91B4
:1008A000CF911F910F91FF90EF90DF90CF9008951F
:1008B000009769F0FC0101900020E9F73197AF0142
:1008C000481B590BBC0181E194E00C942D0480E09D
:1008D00090E00895CF93DF930E945804EC018BE8D9
:1008E00093E00E9458048C0F9D1FDF91CF910895D3
:1008F0009FB7F894A3EEB3E09196ED91FC91929797
:10090000208190968C91822B80839FBF08959FB702
:10091000F894A3EEB3E05E96ED91FC915F97208191
:100920005D968C91822B80839FBF08959FB7F8942A
:10093000A3EEB3E05B96ED91FC915C9720815A9613
:100940008C91822B80839FBF08958F929F92AF924C
:10095000BF92CF92DF92EF92FF920F931F93CF93AC
:10096000DF93C0E0D0E010E0E82E880FFF088BE0B6
:10097000C82ED12C812C912C540183940C2FC701AB
:100980000C2E02C0959587950A94E2F780FF03C06C
:100990000E9487040DC02FB7F894E0910104F091F4
:1009A00002049081809100048095892380832FBF69
:1009B0002FB7F894E091FE03F091FF0390818091AE
:1009C000FD038095892380832FBFC6010197F1F72E
:1009D000E0910704F0910804908180910604892336
:1009E00051F0D501C40104C0880F991FAA1FBB1F75
:1009F0000A95D2F7182B0E9496042196C830D1058B
:100A000009F0BCCF0E94870487E090E00197F1F7DE
:100A1000812FDF91CF911F910F91FF90EF90DF9089
:100A2000CF90BF90AF909F908F9008952FB7F8947C
:100A3000A3EEB3E09196ED91FC9192979081909600
:100A40008C918095892380832FBF0895EF92FF9228
:100A50000F931F93CF93DF937C01C62F0E9416053F
:100A60008701D0E0C8018E199F098C179D0734F4C7
:100A7000F80181918F010E94A504F4CF0E947804AF
:100A800060910D0470E080E090E0DF91CF911F91C4
:100A90000F91FF90EF900C942F0365E080E291E0BE
:100AA0000E94260569E087E191E00E942605809179
:100AB0000F04882329F065E082E191E00E94260579
:100AC00080911004882329F069E089E091E00E9478
:100AD000260569E080E091E00C9426056F927F92F4
:100AE0008F929F92AF92BF92CF92DF92EF92FF923E
:100AF0001F93CF93DF93CDB7DEB729970FB6F89446
:100B0000DEBF0FBECDBF2FB7F8948091DF03909169
:100B1000E003A091E103B091E2032FBFC09009046C
:100B2000D0900A04E0900B04F0900C04BC01CD01BD
:100B30006C197D098E099F090E945D0C6B017C0177
:100B400020E030E84BEB54E40E940F0D181614F42B
:100B50000E944D0560910D0470E080E090E00E94DD
:100B60005F0C4B015C019B01AC01C701B6010E9407
:100B7000290C87FF0AC0A7019601C501B4010E9494
:100B8000BC0B0E942E0C0E942F03CE0101967C010B
:100B900089E0F70111928A95E9F781E0898382E47F
:100BA0008A8315E027E0C22ED12C5E01FAE0AF0E59
:100BB000B11C0E9487040E9496040E941605C6017B
:100BC0000197F1F7470193EE692E93E0792EF40136
:100BD00081914F010E94A504F30181933F018A1482
:100BE0009B04A9F78091E403893741F00E947804BF
:100BF0008091E403807F803789F41CC08CEE882EBE
:100C000083E0982E80E00E94A504F40181934F01B7
:100C1000F8EF8F16F3E09F06A9F7E8CF0E944D0585
:100C200060910D0470E080E090E00E942F0311506D
:100C300009F0BFCF8091E403807F803739F0809145
:100C40000D048A3018F48F5F80930D048091FB03AC
:100C50009091FC039093FA038093F9038091E6034B
:100C60009091E7039093FC038093FB032FB7F894D4
:100C70008091DF039091E003A091E103B091E20342
:100C80002FBF8093090490930A04A0930B04B093A0
:100C90000C049091E403907F81E0903709F080E0AC
:100CA00029960FB6F894DEBF0FBECDBFDF91CF916E
:100CB0001F91FF90EF90DF90CF90BF90AF909F90EB
:100CC0008F907F906F9008958F929F92AF92BF9276
:100CD0000F931F93CF93DF93CDB7DEB7A1970FB6D6
:100CE000F894DEBF0FBECDBF19A2423008F44AE02F
:100CF0008E010F5D1F4F842E912CA12CB12CA501CC
:100D000094010E949A0BE62FB901CA010150110902
:100D1000EA3014F4E05D01C0E95CD801EC93232BC8
:100D2000242B252B61F7C8010E945804A1960FB609
:100D3000F894DEBF0FBECDBFDF91CF911F910F9111
:100D4000BF90AF909F908F900895CF93DF93682FBF
:100D500070E080E090E04AE00E946406EC018BE8DD
:100D600093E00E9458048C0F9D1FDF91CF9108954E
:100D7000BC012091FB033091FC03A90140955095E3
:100D80004823592391E0452B09F490E04091F90361
:100D90005091FA03242735272623372381E0232B7C
:100DA00009F480E089230895BC012091F903309172
:100DB000FA03A901409550954823592391E0452B0A
:100DC00009F490E04091FB035091FC032427352760
:100DD0002623372381E0232B09F480E0892308951B
:100DE000CF93DF93CDB7DEB729970FB6F894DEBF68
:100DF0000FBECDBF789484B5826084BD84B5816018
:100E000084BD85B5826085BD85B5816085BD8091D5
:100E10006E00816080936E0010928100809181004D
:100E20008260809381008091810081608093810045
:100E3000809180008160809380008091B100846007
:100E40008093B1008091B00081608093B000809168
:100E50007A00846080937A0080917A008260809327
:100E60007A0080917A00816080937A0080917A0084
:100E7000806880937A001092C100E0912104F09183
:100E8000220482E08083E0911D04F0911E04108210
:100E9000E0911F04F09120048FEC808310922904CC
:100EA000E0912504F091260486E08083E0912304FC
:100EB000F0912404808180618083E0912304F0918B
:100EC0002404808188608083E0912304F0912404CD
:100ED000808180688083E0912304F09124048081E4
:100EE0008F7D8083EAEBF0E0E491E093FD03E6EA96
:100EF000F0E0E491F0E0EE0FFF1FEA57FF4F85911D
:100F000094919093FF038093FE03E8EBF0E0E4916B
:100F1000E0930004E4EAF0E0E491F0E0EE0FFF1F5C
:100F2000EA57FF4F859194919093020480930104B6
:100F3000E9EBF0E0E491E0930304E5EAF0E0E4910A
:100F4000F0E0EE0FFF1FEA57FF4F859194919093C9
:100F5000050480930404E6EBF0E0E491E0930604DA
:100F6000E2EAF0E0E491F0E0EE0FFF1FE057FF4F00
:100F700085919491909308048093070461E08CE03C
:100F80000E94F30261E08BE00E94F30261E08AE0DC
:100F90000E94F30260E088E00E94F30261E088E0D2
:100FA0000E94A7020E9487040E9496040E946E0578
:100FB0000E946E058091E403813429F0833719F093
:100FC000893709F053C081E080930D048BE0E82E4F
:100FD000F12C97E0A92EB12C9924939465E080E23E
:100FE00091E00E942605C5010197F1F70E94870450
:100FF0000E9496040E941605C5010197F1F705E2CB
:1010000011E0CE0101966C01D8018D918D010E94F5
:10101000A504F60181936F01F1E00E321F07A1F7DD
:101020000E9478048C8180930E0469E087E191E04E
:101030000E94260565E082E191E00E9426059092DB
:101040000F0469E080E091E00E9426050E946E0591
:101050008091E403833761F021E0E21AF10851F056
:1010600080910D048F5F80930D04B8CF81E003C0A1
:1010700080E001C082E0282F30E03093D803209335
:10108000D703813089F0823091F082E591E00E94AF
:101090006A048AE791E00E946A048EEC91E00E9463
:1010A0006A0487E092E005C081E492E002C087EB29
:1010B00092E00E946A0486E0E9EDF3E0DF011D9210
:1010C0008A95E9F71092C9041092C8041092C704D7
:1010D0001092C6041092C5041092C4048DE991E0E8
:1010E0009093CB048093CA049091BA04963108F08F
:1010F00057C02DEB30E03093C5042093C4042BE996
:1011000031E03093C7042093C6042CE231E03093E1
:10111000C9042093C80420916800983050F031E051
:101120009E3008F430E081E001C0880F3A95EAF77C
:1011300001C084E0822B80936800983038F09E30A4
:1011400040F0963148F020E030E008C02DE630E075
:1011500005C02BE630E002C02CE630E03093C2043C
:101160002093C104983030F481E001C0880F9A9533
:10117000EAF70EC0292F30E09E3018F428503109CC
:1011800002C02E50310981E001C0880F2A95EAF78C
:101190008093C3048091CA049091CB040197F1F726
:1011A0008091C8049091C904892B21F18091D503C5
:1011B0009091D603B4E08E3A9B07E1F0009711F0CE
:1011C0000E9433028091CC048E7F8093CC041092D5
:1011D000D4031092D3038EEA94E09093D6038093C5
:1011E000D503E091C104F091C20490818091C304C1
:1011F000892B808311E00E946E058091EA03809321
:10120000D9038091EB038093DA038091E803809304
:10121000DB038091E9038093DC032091F903309193
:10122000FA038091FB039091FC032817390709F416
:1012300041C180E190E00E94B806882349F0809186
:10124000DD03982F9170912790FB80F98093DD0347
:1012500080E490E00E94B806882351F08091DD037D
:1012600081FB992790F9912790FB81F98093DD0309
:1012700080E890E00E94B806882351F08091DD0359
:1012800082FB992790F9912790FB82F98093DD03E7
:1012900080E290E00E94B806882351F08091DD033F
:1012A00083FB992790F9912790FB82F98093DD03C6
:1012B00080E090E10E94B806882351F08091DD0320
:1012C00084FB992790F9912790FB84F98093DD03A3
:1012D00080E090E10E94D406882351F08091DD03E4
:1012E00084FB992790F9912790FB84F98093DD0383
:1012F00080E090E40E94B806882351F08091DD03DD
:1013000085FB992790F9912790FB85F98093DD0360
:1013100080E090E40E94D406882351F08091DD03A0
:1013200085FB992790F9912790FB85F98093DD0340
:1013300080E090E80E94B806882351F08091DD0398
:1013400086FB992790F9912790FB86F98093DD031E
:1013500080E090E80E94D406882351F08091DD035C
:1013600086FB992790F9912790FB86F98093DD03FE
:1013700080E090E20E94B806882359F08091DD0356
:10138000982F9095991F9927991F90FB87F9809323
:10139000DD0380E090E20E94D406882359F080911A
:1013A000DD03982F9095991F9927991F90FB87F936
:1013B0008093DD0380E094E00E94B806882349F022
:1013C0008091DE03982F9170912790FB80F9809394
:1013D000DE0380E091E00E94B806882351F08091FE
:1013E000DE0381FB992790F9912790FB81F9809387
:1013F000DE0382E090E00E94B806882351F08091DD
:10140000DE0382FB992790F9912790FB82F9809364
:10141000DE0380E098E00E94B806882351F08091B6
:10142000DE0383FB992790F9912790FB83F9809342
:10143000DE0380E092E00E94B806882351F080919C
:10144000DE0384FB992790F9912790FB84F9809320
:10145000DE0384E090E00E94B806882351F080917A
:10146000DE0385FB992790F9912790FB85F98093FE
:10147000DE0381E090E00E94B806882351F080915D
:10148000DE0386FB992790F9912790FB86F98093DC
:10149000DE0388E090E00E94B806882359F080912E
:1014A000DE03982F9095991F9927991F90FB87F934
:1014B0008093DE0387E393E00E9458046091D90390
:1014C00070E080E090E04AE00E94640687E493E0E8
:1014D0000E9458046091DA0370E080E090E04AE0F6
:1014E0000E94640688E593E00E9458046091DB0343
:1014F00070E080E090E04AE00E9464068AE693E0B3
:101500000E9458048091DC030E94A5068CE793E0BA
:101510000E9458048091DD030E94A5068CE793E0A9
:101520000E9458048091DE030E94A5066091D903B1
:101530008EEA94E00E94A60161E070E080E090E015
:101540000E942F036091DA038EEA94E00E94A601C4
:1015500061E070E080E090E00E942F036091DB0387
:101560008EEA94E00E94A60161E070E080E090E0E5
:101570000E942F036091DC038EEA94E00E94A60192
:1015800061E070E080E090E00E942F036091DD0355
:101590008EEA94E00E94A60161E070E080E090E0B5
:1015A0000E942F036091DE038EEA94E00E94A60160
:1015B00061E070E080E090E00E942F038EEA94E00A
:1015C0000E94FA010E945E0116CE84E491E090939D
:1015D000AF048093AE048EEA94E00C943302109230
:1015E00014041092130488EE93E0A0E0B0E080931E
:1015F000150490931604A0931704B093180422E3E3
:1016000031E0309312042093110425EC30E0309344
:101610001E0420931D0424EC30E03093200420931A
:101620001F0420EC30E0309322042093210421ECAD
:1016300030E0309324042093230422EC30E03093F4
:1016400026042093250426EC30E0309328042093D0
:10165000270410922A0410922B0410922C0410924A
:101660002D041092B1041092B0048093B2049093B0
:10167000B304A093B404B093B50484E491E09093D0
:10168000AF048093AE041092C5041092C40410926B
:10169000C7041092C6041092C9041092C804109294
:1016A000CB041092CA046091CC046E7F6D7F60936E
:1016B000CC046695617081E0682783E00E94A702F0
:1016C00061E083E00E94F302E1EBF0E0E491E0935B
:1016D000BE04EDE9F0E0E491F0E0EE0FFF1FEA5701
:1016E000FF4F859194919093C0048093BF0460E074
:1016F00082E00E94F3028091CC0481FD04C061E08D
:1017000082E00E94A70282E08093BA04E0EBF0E05E
:10171000E491E093BB04ECE9F0E0E491F0E0EE0F3B
:10172000FF1FE057FF4F859194919093BD048093E4
:10173000BC040895A1E21A2EAA1BBB1BFD010DC01B
:10174000AA1FBB1FEE1FFF1FA217B307E407F50771
:1017500020F0A21BB30BE40BF50B661F771F881F4D
:10176000991F1A9469F760957095809590959B01E3
:10177000AC01BD01CF0108955058BB27AA270E9494
:10178000D40B0C94D50C0E94C70C38F00E94CE0CE0
:1017900020F039F49F3F19F426F40C94C40C0EF495
:1017A000E095E7FB0C94BE0CE92F0E94E60C58F381
:1017B000BA17620773078407950720F079F4A6F536
:1017C0000C94080D0EF4E0950B2EBA2FA02D0B01F2
:1017D000B90190010C01CA01A0011124FF27591B76
:1017E00099F0593F50F4503E68F11A16F040A22F7C
:1017F000232F342F4427585FF3CF469537952795ED
:10180000A795F0405395C9F77EF41F16BA0B620BEB
:10181000730B840BBAF09150A1F0FF0FBB1F661F32
:10182000771F881FC2F70EC0BA0F621F731F841F75
:1018300048F4879577956795B795F7959E3F08F09B
:10184000B0CF9395880F08F09927EE0F979587955D
:1018500008950E949A0C08F481E008950E94EE0C0D
:1018600088F09F5798F0B92F9927B751B0F0E1F061
:10187000660F771F881F991F1AF0BA95C9F714C011
:10188000B13091F00E94080DB1E008950C94080D5C
:10189000672F782F8827B85F39F0B93FCCF386954A
:1018A00077956795B395D9F73EF4909580957095A7
:1018B00061957F4F8F4F9F4F0895E89409C097FB24
:1018C0003EF490958095709561957F4F8F4F9F4F17
:1018D0009923A9F0F92F96E9BB279395F69587955B
:1018E00077956795B795F111F8CFFAF4BB0F11F41E
:1018F00060FF1BC06F5F7F4F8F4F9F4F16C08823C5
:1019000011F096E911C0772321F09EE8872F762FFA
:1019100005C0662371F096E8862F70E060E02AF03B
:101920009A95660F771F881FDAF7880F9695879527
:1019300097F90895990F0008550FAA0BE0E8FEEFFC
:1019400016161706E807F907C0F012161306E40783
:10195000F50798F0621B730B840B950B39F40A267C
:1019600061F0232B242B252B21F408950A2609F45A
:10197000A140A6958FEF811D811D089597F99F675E
:1019800080E870E060E008959FEF80EC0895002407
:101990000A941616170618060906089500240A94D4
:1019A00012161306140605060895092E0394000C5A
:1019B00011F4882352F0BB0F40F4BF2B11F460FFE9
:1019C00004C06F5F7F4F8F4F9F4F089557FD905812
:1019D000440F551F59F05F3F71F04795880F97FBF3
:1019E000991F61F09F3F79F08795089512161306AD
:1019F0001406551FF2CF4695F1DF08C016161706DC
:101A00001806991FF1CF8695710561050894089510
:101A1000E894BB2766277727CB0197F908950E94A2
:101A20009A0C08F48FEF089597FB072E16F4009494
:101A300007D077FD09D00E94280D07FC05D03EF4A1
:101A4000909581959F4F0895709561957F4F08956A
:101A5000AA1BBB1B51E107C0AA1FBB1FA617B707D4
:101A600010F0A61BB70B881F991F5A95A9F78095F0
:101A70009095BC01CD010895EE0FFF1F0590F491E4
:101A8000E02D099481E090E0F8940C94470D10E06B
:101A9000C2E6D0E004C0FE010E943C0D2196C33690
:081AA000D107C9F7F894FFCF4C
:101AA800014300005A5A5A5A5A014F00FFFF0300D7
:101AB8000000014D00000101440001030000000086
:101AC80001430001000145005A5A5A5A5A5A000067
:101AD8000000F5002D048D003C01BE009C00B00004
:101AE80000000000A6012D044A02A501FA01120215
:101AF8008D01466F756E6420436F6E74726F6C6CE7
:101B080065722C20636F6E666967757265642073F1
:101B180075636365737366756C00547279206F75AD
:101B28007420616C6C2074686520627574746F6EC3
:101B3800732C20582077696C6C2076696272617406
:101B4800652074686520636F6E74726F6C6C657263
:101B58002C2066617374657220617320796F75201B
:101B68007072657373206861726465723B00686F98
:101B78006C64696E67204C31206F72205231207777
:101B8800696C6C207072696E74206F75742074684B
:101B98006520616E616C6F6720737469636B207672
:101BA800616C7565732E00476F20746F20777777A7
:101BB8002E62696C6C706F727465722E696E666FD6
:101BC80020666F72207570646174657320616E643D
:101BD80020746F207265706F727420627567732E3F
:101BE800004E6F20636F6E74726F6C6C6572206646
:101BF8006F756E642C20636865636B207769726902
:101C08006E672C2073656520726561646D652E743E
:101C1800787420746F20656E61626C6520646562FB
:101C280075672E207669736974207777772E6269D5
:101C38006C6C706F727465722E696E666F20666F59
:101C4800722074726F75626C6573686F6F74696EF9
:101C580067207469707300436F6E74726F6C6C6583
:101C68007220666F756E6420627574206E6F7420C2
:101C7800616363657074696E6720636F6D6D616E13
:101C880064732E2073656520726561646D652E74BA
:101C9800787420746F20656E61626C65206465627B
:101CA80075672E205669736974207777772E626975
:101CB8006C6C706F727465722E696E666F20666FD9
:101CC800722074726F75626C6573686F6F74696E79
:101CD800672074697073004C65667420416E616C8E
:101CE8006F6720583A0900094C65667420416E6197
:101CF8006C6F6720593A0900095269676874204176
:101D08006E616C6F6720583A0900095269676874F8
:101D180020416E616C6F6720593A090009444947B0
:0E1D28004954414C204B45595309000D0A0007
:00000001FF
