:100000000C9463000C948B000C948B000C94C00334
:100010000C94C0030C94C0030C948B000C948B00C4
:100020000C948B000C948B000C948B000C948B0024
:100030000C948B000C948B000C948B000C948B0014
:100040000C9476030C948B000C9482020C945C024A
:100050000C948B000C948B000C948B000C948B00F4
:100060000C948B000C948B000000000024002700EF
:100070002A0000000008000201000003040700003D
:1000800000000000000000000000250028002B00F8
:1000900000000000230026002900040404040404D6
:1000A0000404020202020202030303030303010227
:1000B00004081020408001020408102001020408F6
:1000C0001020C70ABD0A11241FBECFEFD8E0DEBF43
:1000D000CDBF13E0A0E0B1E0E8E5FAE102C0059091
:1000E0000D92AE38B107D9F724E0AEE8B3E001C015
:1000F0001D92AB3DB207E1F710E0C2E6D0E004C0CC
:100100002197FE010E94140DC136D107C9F70E9444
:10011000EA060C941F0D0C940000FC01538D448DD5
:10012000252F30E0842F90E0821B930B541710F0A2
:10013000CF96089501970895FC01918D828D9817AF
:1001400061F0828DDF01A80FB11D5D968C91928DBB
:100150009F5F9F73928F90E008958FEF9FEF0895B8
:10016000FC01918D828D981731F0828DE80FF11D81
:10017000858D90E008958FEF9FEF0895FC01918D9C
:10018000228D892F90E0805C9F4F821B91098F7395
:10019000992708958FE194E00E94BE0021E0892B09
:1001A00009F420E0822F0895FC01848DDF01A80F5F
:1001B000B11DA35ABF4F2C91848D90E001968F738F
:1001C0009927848FA689B7892C93A089B1898C91AE
:1001D00080648C93938D848D981306C00288F38974
:1001E000E02D80818F7D80830895EF92FF920F93A1
:1001F0001F93CF93DF93EC0181E0888F9B8D8C8DD3
:10020000981305C0E889F989808185FD24C0F62E00
:100210000B8D10E00F5F1F4F0F731127E02E8C8D99
:10022000E8120CC00FB607FCFACFE889F989808183
:1002300085FFF5CFCE010E94D400F1CF8B8DFE015A
:10024000E80FF11DE35AFF4FF0820B8FEA89FB891B
:100250008081806207C0EE89FF896083E889F9891F
:1002600080818064808381E090E0DF91CF911F9155
:100270000F91FF90EF900895CF93DF93EC01888D5D
:100280008823C9F0EA89FB89808185FD05C0A8899A
:10029000B9898C9186FD0FC00FB607FCF5CF808120
:1002A00085FFF2CFA889B9898C9185FFEDCFCE016A
:1002B0000E94D400E7CFDF91CF91089580E090E0D5
:1002C000892B29F00E94CA0081110C940000089526
:1002D0003FB7F8948091CF039091D003A091D103C0
:1002E000B091D20326B5A89B05C02F3F19F0019607
:1002F000A11DB11D3FBFBA2FA92F982F8827820FAC
:10030000911DA11DB11DBC01CD0142E0660F771FFB
:10031000881F991F4A95D1F708952091D5033091F0
:10032000D6032817390771F49091D3038091D40331
:10033000981741F0E091D303F0E0E257FC4F808141
:1003400090E008958FEF9FEF089508951F93CF9346
:10035000DF93DC015C962D913C915D972115310571
:1003600039F481E090E013969C938E9312973DC0F0
:100370005196ED91FC91529750969C915097892FF0
:1003800080951FB75E964C915E9741FB772770F979
:1003900041FD6095F8944081772311F0492B01C00D
:1003A00048234083E9012197F1F748E0508160FF3D
:1003B00002C0592B01C058235083E9012197F1F75E
:1003C0006695415099F7772321F0908189238083A6
:1003D00003C08081982B90831FBF5C968D919C9168
:1003E0005D970197F1F721E030E0C901DF91CF91EE
:1003F0001F9108952091D5033091D603281739070E
:1004000071F48091D4032091D30390E0805C9F4FDE
:10041000821B910960E470E00E94EC0C089580E07A
:1004200090E008952091D5033091D603281739071D
:10043000B9F49091D3038091D403981789F0E09197
:10044000D303F0E0E257FC4F80812091D30330E0EA
:100450002F5F3F4F2F7333272093D30390E00895EE
:100460008FEF9FEF0895E091D503F091D603E81741
:10047000F90769F4A389B4899C91858980958923BA
:100480008C931092D6031092D50381E0089580E0FA
:100490000895089580E090E008952091EB03309155
:1004A000EC032823392381E090E0232B11F080E036
:1004B00090E008950E941A0D1F920F920FB60F92AE
:1004C00011242F933F934F935F936F937F938F9359
:1004D0009F93AF93BF93EF93FF938FE194E00E94BC
:1004E000D400FF91EF91BF91AF919F918F917F9138
:1004F0006F915F914F913F912F910F900FBE0F9091
:100500001F9018951F920F920FB60F9211242F93E0
:100510008F939F93EF93FF93E0912F04F09130041A
:100520008081E0913504F091360482FD12C0908103
:10053000809138048F5F8F7320913904821751F0B6
:10054000E0913804F0E0E15EFB4F958F8093380432
:1005500001C08081FF91EF919F918F912F910F901A
:100560000FBE0F901F90189590E0FC01EE58FF4FC2
:100570003491FC01E255FF4F2491FC01E656FF4FF8
:10058000E491EE2309F43BC0332339F1333091F089
:1005900038F43130A9F0323001F584B58F7D12C0C6
:1005A000373091F03830A1F03430B9F480918000C8
:1005B0008F7D03C0809180008F77809380000DC075
:1005C00084B58F7784BD09C08091B0008F7703C058
:1005D0008091B0008F7D8093B000F0E0EE0FFF1FA0
:1005E000EA57FF4FA591B4918FB7F894EC91611140
:1005F00003C020952E2301C02E2B2C938FBF08956E
:10060000CF93DF9390E0FC01E255FF4F2491FC0172
:10061000E656FF4F8491882361F190E0880F991F7F
:10062000FC01E859FF4FC591D491FC01EA57FF4FF7
:10063000A591B491611109C09FB7F8948881209564
:1006400082238883EC912E230BC0623061F49FB724
:10065000F8943881822F809583238883EC912E2B08
:100660002C939FBF06C08FB7F894E8812E2B288368
:100670008FBFDF91CF9108958F929F92AF92BF92DB
:10068000CF92DF92EF92FF926B017C010E94680192
:100690004B015C01C114D104E104F104F1F00E94AA
:1006A0006801DC01CB0188199909AA09BB09883EB8
:1006B0009340A105B10570F321E0C21AD108E10809
:1006C000F10888EE880E83E0981EA11CB11CC114AD
:1006D000D104E104F10419F7DDCFFF90EF90DF9032
:1006E000CF90BF90AF909F908F9008951F920F92E0
:1006F0000FB60F9211242F933F938F939F93AF9335
:10070000BF938091ED039091EE03A091EF03B09120
:10071000F0033091CE0323E0230F2D3720F4019610
:10072000A11DB11D05C026E8230F0296A11DB11D14
:100730002093CE038093ED039093EE03A093EF03F9
:10074000B093F0038091CF039091D003A091D10397
:10075000B091D2030196A11DB11D8093CF03909358
:10076000D003A093D103B093D203BF91AF919F91D7
:100770008F913F912F910F900FBE0F901F90189562
:100780001F920F920FB60F9211242F933F934F9306
:100790005F936F937F938F939F93AF93BF93EF93E9
:1007A000FF93E091D503F091D603309709F451C03F
:1007B000968DA685B785858591FF04C09C91892378
:1007C00029F447C09C91892309F043C0A389B489C7
:1007D0009C918589809589238C9386899789019737
:1007E000F1F7608D718DA685B785558538E020E0DD
:1007F000CB010197F1F7822F90E095958795282FEF
:100800004C91452309F02068315091F7868D81FD88
:1008100020958091D40390E001968F7399273091B1
:10082000D303381749F0A091D403B0E0A257BC4FCE
:100830002C938093D40303C0868D8160868F828D34
:10084000938D0197F1F7A389B4899C918589892BB0
:100850008C93FF91EF91BF91AF919F918F917F9179
:100860006F915F914F913F912F910F900FBE0F901D
:100870001F901895CF92DF92EF92FF920F931F93E4
:10088000CF93DF936C017A018B01C0E0D0E0CE15ED
:10089000DF0589F0D8016D918D01D601ED91FC91B4
:1008A0000190F081E02DC6010995892B11F47E019C
:1008B00002C02196ECCFC701DF91CF911F910F911C
:1008C000FF90EF90DF90CF900895009769F0FC01C2
:1008D00001900020E9F73197AF01481B590BBC018B
:1008E0008FE194E00C943A0480E090E00895CF9377
:1008F000DF930E946504EC018CE793E00E9465049D
:100900008C0F9D1FDF91CF9108959FB7F894A1EFB1
:10091000B3E09196ED91FC919297208190968C9105
:10092000822B80839FBF08959FB7F894A1EFB3E017
:100930005E96ED91FC915F9720815D968C91822B64
:1009400080839FBF08959FB7F894A1EFB3E05B96B3
:10095000ED91FC915C9720815A968C91822B80833B
:100960009FBF08958F929F92AF92BF92CF92DF92D6
:10097000EF92FF920F931F93CF93DF93C0E0D0E0ED
:1009800010E0E82E880FFF088BE0C82ED12C812CB8
:10099000912C540183940C2FC7010C2E02C0959505
:1009A00087950A94E2F780FF03C00E9494040DC06B
:1009B0002FB7F894E0910F04F0911004908180918A
:1009C0000E048095892380832FBF2FB7F894E09180
:1009D0000C04F0910D04908180910B048095892383
:1009E00080832FBFC6010197F1F7E0911504F091C4
:1009F0001604908180911404892351F0D501C4011B
:100A000004C0880F991FAA1FBB1F0A95D2F7182B85
:100A10000E94A3042196C830D10509F0BCCF0E94E2
:100A2000940487E090E00197F1F7812FDF91CF9157
:100A30001F910F91FF90EF90DF90CF90BF90AF90FC
:100A40009F908F9008952FB7F894A1EFB3E09196FF
:100A5000ED91FC919297908190968C91809589234D
:100A600080832FBF0895EF92FF920F931F93CF9330
:100A7000DF937C01C62F0E9423058701D0E0C801C7
:100A80008E199F098C179D0734F4F80181918F010D
:100A90000E94B204F4CF0E94850460911B0470E0B0
:100AA00080E090E0DF91CF911F910F91FF90EF9048
:100AB0000C943C0365E080E291E00E94330569E01C
:100AC00087E191E00E94330580911D04882329F07D
:100AD00065E082E191E00E94330580911E04882345
:100AE00029F069E089E091E00E94330569E080E047
:100AF00091E00C9433056F927F928F929F92AF9208
:100B0000BF92CF92DF92EF92FF921F93CF93DF932A
:100B1000CDB7DEB729970FB6F894DEBF0FBECDBFB5
:100B20002FB7F8948091ED039091EE03A091EF031D
:100B3000B091F0032FBFC0901704D0901804E0903C
:100B40001904F0901A04BC01CD016C197D098E09BD
:100B50009F090E94350C6B017C0120E030E84BEBD3
:100B600054E40E94E70C181614F40E945A05609190
:100B70001B0470E080E090E00E94370C4B015C01A8
:100B80009B01AC01C701B6010E94010C87FF0AC09E
:100B9000A7019601C501B4010E94940B0E94060CA6
:100BA0000E943C03CE0101967C0189E0F70111927D
:100BB0008A95E9F781E0898382E48A8315E027E05A
:100BC000C22ED12C5E01FAE0AF0EB11C0E9494043B
:100BD0000E94A3040E942305C6010197F1F7470173
:100BE00091EF692E93E0792EF40181914F010E94DB
:100BF000B204F30181933F018A149B04A9F7809109
:100C0000F203893741F00E9485048091F203807FCE
:100C1000803789F41CC08AEF882E83E0982E80E00C
:100C20000E94B204F40181934F01F6E08F16F4E0C4
:100C30009F06A9F7E8CF0E945A0560911B0470E057
:100C400080E090E00E943C03115009F0BFCF8091FA
:100C5000F203807F803739F080911B048A3018F4CA
:100C60008F5F80931B048091090490910A049093F4
:100C70000804809307048091F4039091F503909306
:100C80000A04809309042FB7F8948091ED039091A2
:100C9000EE03A091EF03B091F0032FBF80931704F0
:100CA00090931804A0931904B0931A049091F2033E
:100CB000907F81E0903709F080E029960FB6F89494
:100CC000DEBF0FBECDBFDF91CF911F91FF90EF90A0
:100CD000DF90CF90BF90AF909F908F907F906F905C
:100CE00008958F929F92AF92BF920F931F93CF93CD
:100CF000DF93CDB7DEB7A1970FB6F894DEBF0FBE76
:100D0000CDBF19A2423008F44AE08E010F5D1F4F9B
:100D1000842E912CA12CB12CA50194010E94720B60
:100D2000E62FB901CA0101501109EA3014F4E05D5F
:100D300001C0E95CD801EC93232B242B252B61F710
:100D4000C8010E946504A1960FB6F894DEBF0FBEDD
:100D5000CDBFDF91CF911F910F91BF90AF909F902A
:100D60008F900895BC012091090430910A04A901D3
:100D7000409550954823592391E0452B09F490E084
:100D80004091070450910804242735272623372350
:100D900081E0232B09F480E089230895BC01209190
:100DA000070430910804A901409550954823592320
:100DB00091E0452B09F490E04091090450910A0418
:100DC000242735272623372381E0232B09F480E0CD
:100DD00089230895CF93DF93CDB7DEB729970FB658
:100DE000F894DEBF0FBECDBF789484B5826084BD19
:100DF00084B5816084BD85B5826085BD85B581601F
:100E000085BD80916E00816080936E00109281009C
:100E10008091810082608093810080918100816057
:100E20008093810080918000816080938000809118
:100E3000B10084608093B1008091B00081608093A4
:100E4000B00080917A00846080937A0080917A006B
:100E5000826080937A0080917A00816080937A002A
:100E600080917A00806880937A001092C100E091AE
:100E70002F04F091300482E08083E0912B04F09104
:100E80002C041082E0912D04F0912E048FEC8083CD
:100E900010923704E0913304F091340486E08083AB
:100EA000E0913104F0913204808180618083E0918F
:100EB0003104F0913204808188608083E0913104B4
:100EC000F0913204808180688083E0913104F09158
:100ED000320480818F7D8083EAEBF0E0E491E0933F
:100EE0000B04E6EAF0E0E491F0E0EE0FFF1FEA57B2
:100EF000FF4F8591949190930D0480930C04E8EB3F
:100F0000F0E0E491E0930E04E4EAF0E0E491F0E034
:100F1000EE0FFF1FEA57FF4F8591949190931004B5
:100F200080930F04E9EBF0E0E491E0931104E5EA2B
:100F3000F0E0E491F0E0EE0FFF1FEA57FF4F8591DC
:100F400094919093130480931204E6EBF0E0E49103
:100F5000E0931404E2EAF0E0E491F0E0EE0FFF1F0A
:100F6000E057FF4F85919491909316048093150458
:100F700061E08CE00E94000361E08BE00E940003CE
:100F800061E08AE00E94000360E088E00E940003C4
:100F900061E088E00E94B4020E9494040E94A304CD
:100FA0000E947B050E947B058091F203813429F029
:100FB000833719F0893709F053C081E080931B040F
:100FC0008BE0E82EF12C97E0A92EB12C9924939474
:100FD00065E080E291E00E943305C5010197F1F7D9
:100FE0000E9494040E94A3040E942305C501019756
:100FF000F1F705E211E0CE0101966C01D8018D9167
:101000008D010E94B204F60181936F01F1E00E326E
:101010001F07A1F70E9485048C8180931C0469E05E
:1010200087E191E00E94330565E082E191E00E9452
:10103000330590921D0469E080E091E00E94330541
:101040000E947B058091F203833761F021E0E21A70
:10105000F10851F080911B048F5F80931B04B8CF7F
:1010600081E003C080E001C082E0282F30E03093AF
:10107000E2032093E103813089F0823091F082E530
:1010800091E00E9477048AE791E00E9477048EEC59
:1010900091E00E94770487E092E005C081E492E04D
:1010A00002C087EB92E00E9477048AE0E3EEF3E06F
:1010B000DF01282F1D922A95E9F7E7EDF3E0DF0124
:1010C0001D928A95E9F71092D7041092D6041092D7
:1010D000D5041092D4041092D3041092D2048DE956
:1010E00091E09093D9048093D8049091C8049631EC
:1010F00008F057C02DEB30E03093D3042093D20496
:101100002BE931E03093D5042093D4042CE231E074
:101110003093D7042093D60420916800983050F083
:1011200031E09E3008F430E081E001C0880F3A954C
:10113000EAF701C084E0822B80936800983038F091
:101140009E3040F0963148F020E030E008C02DE6B7
:1011500030E005C02BE630E002C02CE630E03093F2
:10116000D0042093CF04983030F481E001C0880F80
:101170009A95EAF70EC0292F30E09E3018F42850D7
:10118000310902C02E50310981E001C0880F2A9533
:10119000EAF78093D1048091D8049091D904019703
:1011A000F1F78091D6049091D704892B21F1809199
:1011B000D5039091D603B4E08C3B9B07E1F00097F8
:1011C00011F00E9433028091DA048E7F8093DA045A
:1011D0001092D4031092D3038CEB94E09093D60337
:1011E0008093D503E091CF04F091D0049081809159
:1011F000D104892B80830E947B058091F80390E0C5
:101200009093E4038093E3038091F90390E090933B
:10121000E6038093E5038091F60390E09093E80362
:101220008093E7038091F70390E09093EA03809323
:10123000E9032091070430910804809109049091FA
:101240000A042817390709F440C180E094E00E949D
:10125000B206882351F081E090E00E944D02909107
:10126000EB0380FB90F99093EB0380E091E00E9408
:10127000B206882351F082E090E00E944D029091E6
:10128000EB0380FB91F99093EB0382E090E00E94E6
:10129000B206882351F084E090E00E944D029091C4
:1012A000EB0380FB92F99093EB0380E098E00E94BF
:1012B000B206882351F088E090E00E944D029091A0
:1012C000EB0380FB93F99093EB0380E092E00E94A4
:1012D000B206882351F080E190E00E944D02909187
:1012E000EB0380FB94F99093EB0384E090E00E9481
:1012F000B206882351F080E290E00E944D02909166
:10130000EB0380FB95F99093EB0380E190E00E9462
:10131000B206882351F080E490E00E944D02909143
:10132000EB0380FB96F99093EB0380E490E00E943E
:10133000B206882351F080E890E00E944D0290911F
:10134000EB0380FB97F99093EB0380E890E00E9419
:10135000B206882351F080E091E00E944D02909106
:10136000EC0380FB90F99093EC0380E290E00E9404
:10137000B206882351F080E092E00E944D029091E5
:10138000EC0380FB91F99093EC0380E090E10E94E4
:10139000B206882351F080E094E00E944D029091C3
:1013A000EC0380FB92F99093EC0380E090E10E94C3
:1013B000CE06882351F080E094E00E944D02909187
:1013C000EC0380FB92F99093EC0380E090E40E94A0
:1013D000B206882351F080E098E00E944D0290917F
:1013E000EC0380FB93F99093EC0380E090E40E947F
:1013F000CE06882351F080E098E00E944D02909143
:10140000EC0380FB93F99093EC0380E090E80E945A
:10141000B206882351F080E090E10E944D02909145
:10142000EC0380FB94F99093EC0380E090E80E9439
:10143000CE06882351F080E090E10E944D02909109
:10144000EC0380FB94F99093EC0380E090E20E941F
:10145000B206882351F080E090E20E944D02909104
:10146000EC0380FB95F99093EC0380E090E20E94FE
:10147000CE06882351F080E090E20E944D029091C8
:10148000EC0380FB95F99093EC0381E090E00E94DF
:10149000B206882351F080E090E40E944D029091C2
:1014A000EC0380FB96F99093EC0388E090E00E94B7
:1014B000B206882351F080E090E80E944D0290919E
:1014C000EC0380FB97F99093EC0387E393E00E9491
:1014D00065046091E3037091E40380E090E04AE0EA
:1014E0000E94710687E493E00E9465046091E50321
:1014F0007091E60380E090E04AE00E94710688E582
:1015000093E00E9465046091E7037091E80380E036
:1015100090E04AE00E9471068AE693E00E9465042A
:101520006091E9037091EA0380E090E04AE00E9454
:1015300071068CE793E00E9465048FE793E00E94B8
:1015400065046091EB037091EC0380E090E04AE069
:101550000E9471068CE793E00E9465046091E303AA
:101560008CEB94E00E94A6016091E5038CEB94E083
:101570000E94A6010E945E013ECE84E491E0909319
:10158000BD048093BC048CEB94E00C943302109265
:1015900022041092210488EE93E0A0E0B0E0809352
:1015A000230490932404A0932504B093260422E3FB
:1015B00031E03093200420931F0425EC30E0309379
:1015C0002C0420932B0424EC30E030932E04209341
:1015D0002D0420EC30E03093300420932F0421ECD4
:1015E00030E0309332042093310422EC30E0309329
:1015F00034042093330426EC30E0309336042093F7
:101600003504109238041092390410923A04109262
:101610003B041092BF041092BE048093C0049093C8
:10162000C104A093C204B093C30484E491E09093F6
:10163000BD048093BC041092D3041092D204109283
:10164000D5041092D4041092D7041092D6041092AC
:10165000D9041092D8046091DA046E7F6D7F609394
:10166000DA046695617081E0682783E00E94B40225
:1016700061E083E00E940003E1EBF0E0E491E0939D
:10168000CC04EDE9F0E0E491F0E0EE0FFF1FEA5743
:10169000FF4F859194919093CE048093CD0460E0A8
:1016A00082E00E9400038091DA0481FD04C061E0C1
:1016B00082E00E94B40282E08093C804E0EBF0E094
:1016C000E491E093C904ECE9F0E0E491F0E0EE0F7E
:1016D000FF1FE057FF4F859194919093CB04809327
:1016E000CA040895A1E21A2EAA1BBB1BFD010DC05E
:1016F000AA1FBB1FEE1FFF1FA217B307E407F507C2
:1017000020F0A21BB30BE40BF50B661F771F881F9D
:10171000991F1A9469F760957095809590959B0133
:10172000AC01BD01CF0108955058BB27AA270E94E4
:10173000AC0B0C94AD0C0E949F0C38F00E94A60CD0
:1017400020F039F49F3F19F426F40C949C0C0EF40D
:10175000E095E7FB0C94960CE92F0E94BE0C58F321
:10176000BA17620773078407950720F079F4A6F586
:101770000C94E00C0EF4E0950B2EBA2FA02D0B016B
:10178000B90190010C01CA01A0011124FF27591BC6
:1017900099F0593F50F4503E68F11A16F040A22FCC
:1017A000232F342F4427585FF3CF4695379527953D
:1017B000A795F0405395C9F77EF41F16BA0B620B3C
:1017C000730B840BBAF09150A1F0FF0FBB1F661F83
:1017D000771F881FC2F70EC0BA0F621F731F841FC6
:1017E00048F4879577956795B795F7959E3F08F0EC
:1017F000B0CF9395880F08F09927EE0F97958795AE
:1018000008950E94720C08F481E008950E94C60CAD
:1018100088F09F5798F0B92F9927B751B0F0E1F0B1
:10182000660F771F881F991F1AF0BA95C9F714C061
:10183000B13091F00E94E00CB1E008950C94E00CFE
:10184000672F782F8827B85F39F0B93FCCF386959A
:1018500077956795B395D9F73EF4909580957095F7
:1018600061957F4F8F4F9F4F0895E89409C097FB74
:101870003EF490958095709561957F4F8F4F9F4F67
:101880009923A9F0F92F96E9BB279395F6958795AB
:1018900077956795B795F111F8CFFAF4BB0F11F46E
:1018A00060FF1BC06F5F7F4F8F4F9F4F16C0882315
:1018B00011F096E911C0772321F09EE8872F762F4B
:1018C00005C0662371F096E8862F70E060E02AF08C
:1018D0009A95660F771F881FDAF7880F9695879578
:1018E00097F90895990F0008550FAA0BE0E8FEEF4D
:1018F00016161706E807F907C0F012161306E407D4
:10190000F50798F0621B730B840B950B39F40A26CC
:1019100061F0232B242B252B21F408950A2609F4AA
:10192000A140A6958FEF811D811D089597F99F67AE
:1019300080E870E060E008959FEF80EC0895002457
:101940000A941616170618060906089500240A9424
:1019500012161306140605060895092E0394000CAA
:1019600011F4882352F0BB0F40F4BF2B11F460FF39
:1019700004C06F5F7F4F8F4F9F4F089557FD905862
:10198000440F551F59F05F3F71F04795880F97FB43
:10199000991F61F09F3F79F08795089512161306FD
:1019A0001406551FF2CF4695F1DF08C0161617062C
:1019B0001806991FF1CF8695710561050894089561
:1019C000E894BB2766277727CB0197F908950E94F3
:1019D000720C08F48FEF089597FB072E16F400940D
:1019E00007D077FD09D00E94000D07FC05D03EF41A
:1019F000909581959F4F0895709561957F4F0895BB
:101A0000AA1BBB1B51E107C0AA1FBB1FA617B70724
:101A100010F0A61BB70B881F991F5A95A9F7809540
:101A20009095BC01CD010895EE0FFF1F0590F49134
:101A3000E02D099481E090E0F8940C941F0D10E0E3
:101A4000C2E6D0E004C0FE010E94140D2196C33608
:081A5000D107C9F7F894FFCF9C
:101A5800014300005A5A5A5A5A014F00FFFF030027
:101A68000000014D000001014400010300000000D6
:101A780001430001000145005A5A5A5A5A5A0000B7
:101A88000000F5003A048D003C01BE009C00B00047
:101A980000000000A6013A044A02A501FA01120258
:101AA8008D01466F756E6420436F6E74726F6C6C37
:101AB80065722C20636F6E66696775726564207342
:101AC80075636365737366756C00547279206F75FE
:101AD8007420616C6C2074686520627574746F6E14
:101AE800732C20582077696C6C2076696272617457
:101AF800652074686520636F6E74726F6C6C6572B4
:101B08002C2066617374657220617320796F75206B
:101B18007072657373206861726465723B00686FE8
:101B28006C64696E67204C31206F722052312077C7
:101B3800696C6C207072696E74206F75742074689B
:101B48006520616E616C6F6720737469636B2076C2
:101B5800616C7565732E00476F20746F20777777F7
:101B68002E62696C6C706F727465722E696E666F26
:101B780020666F72207570646174657320616E648D
:101B880020746F207265706F727420627567732E8F
:101B9800004E6F20636F6E74726F6C6C6572206696
:101BA8006F756E642C20636865636B207769726952
:101BB8006E672C2073656520726561646D652E748F
:101BC800787420746F20656E61626C65206465624C
:101BD80075672E207669736974207777772E626926
:101BE8006C6C706F727465722E696E666F20666FAA
:101BF800722074726F75626C6573686F6F74696E4A
:101C080067207469707300436F6E74726F6C6C65D3
:101C18007220666F756E6420627574206E6F742012
:101C2800616363657074696E6720636F6D6D616E63
:101C380064732E2073656520726561646D652E740A
:101C4800787420746F20656E61626C6520646562CB
:101C580075672E205669736974207777772E6269C5
:101C68006C6C706F727465722E696E666F20666F29
:101C7800722074726F75626C6573686F6F74696EC9
:101C8800672074697073004C65667420416E616CDE
:101C98006F6720583A0900094C65667420416E61E7
:101CA8006C6F6720593A09000952696768742041C6
:101CB8006E616C6F6720583A090009526967687449
:101CC80020416E616C6F6720593A09000D0A0009BE
:0E1CD8004449474954414C204B45595309009B
:107800000C94343C0C94513C0C94513C0C94513CE1
:107810000C94513C0C94513C0C94513C0C94513CB4
:107820000C94513C0C94513C0C94513C0C94513CA4
:107830000C94513C0C94513C0C94513C0C94513C94
:107840000C94513C0C94513C0C94513C0C94513C84
:107850000C94513C0C94513C0C94513C0C94513C74
:107860000C94513C0C94513C11241FBECFEFD8E036
:10787000DEBFCDBF11E0A0E0B1E0ECE9FFE702C060
:1078800005900D92A230B107D9F712E0A2E0B1E065
:1078900001C01D92AD30B107E1F70E942D3D0C945F
:1078A000CC3F0C94003C982F959595959595959582
:1078B000905D8F708A307CF0282F295A8091C0000B
:1078C00085FFFCCF9093C6008091C00085FFFCCF60
:1078D0002093C6000895282F205DF0CF982F809127
:1078E000C00085FFFCCF9093C6000895EF92FF92F1
:1078F0000F931F93EE24FF2487018091C00087FD22
:1079000017C00894E11CF11C011D111D81E4E8164B
:1079100082E4F8068FE0080780E0180770F3E09132
:107920000401F091050109958091C00087FFE9CF1E
:107930008091C6001F910F91FF90EF9008950E94D3
:10794000763C982F8091C00085FFFCCF9093C600B5
:1079500091362CF490330CF09053892F089597555D
:10796000892F08951F930E949F3C182F0E949F3CCF
:107970001295107F810F1F9108951F93182F882350
:1079800021F00E94763C1150E1F71F9108951F935A
:10799000182F0E94763C803249F0809103018F5F5E
:1079A000809303018530C1F01F9108958091C0003C
:1079B00085FFFCCF84E18093C6008091C00085FFE5
:1079C000FCCF1093C6008091C00085FFFCCF80E102
:1079D0008093C6001F910895E0910401F091050184
:1079E00009951F9108950E94763C803241F0809164
:1079F00003018F5F80930301853081F008958091AA
:107A0000C00085FFFCCF84E18093C6008091C00058
:107A100085FFFCCF80E18093C6000895E0910401CA
:107A2000F09105010995089540E951E08823A1F0FE
:107A30002D9A28EE33E0FA013197F1F721503040CA
:107A4000D1F72D9828EE33E0FA013197F1F7215064
:107A50003040D1F7815061F708953F924F925F9285
:107A60006F927F928F929F92AF92BF92CF92DF924E
:107A7000EF92FF920F931F93CF93DF93000080E16B
:107A80008093C4001092C50088E18093C10086E015
:107A90008093C2005098589A259A81E00E94143D24
:107AA00024E1F22E9EE1E92E85E9D82E0FE0C02ECA
:107AB00010E1B12EAA24A394B1E49B2EA6E58A2E50
:107AC000F2E57F2EE0E26E2E79E4572E63E5462E36
:107AD00050E5352E0E94763C8033B1F18133B9F107
:107AE000803409F46FC0813409F476C0823409F41B
:107AF00085C0853409F488C0803531F1823521F1A3
:107B0000813511F1853509F485C0863509F48DC0BC
:107B1000843609F496C0843709F403C1853709F423
:107B200072C1863709F466C0809103018F5F80932C
:107B30000301853079F6E0910401F0910501099582
:107B40000E94763C803351F60E94F33CC3CF0E94E2
:107B5000763C803249F78091C00085FFFCCFF092DF
:107B6000C6008091C00085FFFCCF9092C600809136
:107B7000C00085FFFCCF8092C6008091C00085FFC9
:107B8000FCCF7092C6008091C00085FFFCCF609250
:107B9000C6008091C00085FFFCCF5092C600809146
:107BA000C00085FFFCCF4092C6008091C00085FFD9
:107BB000FCCF3092C6008091C00085FFFCCFB09210
:107BC000C60088CF0E94763C863808F4BDCF0E945C
:107BD000763C0E94F33C7ECF0E94763C803809F4CC
:107BE0009CC0813809F40BC1823809F43CC1883942
:107BF00009F48FC080E00E94C73C6CCF84E10E94F2
:107C0000BD3C0E94F33C66CF85E00E94BD3C0E94D3
:107C1000F33C60CF0E94763C809306010E94763C44
:107C2000809307010E94F33C55CF0E94763C80333D
:107C300009F41DC183E00E94BD3C80E00E94C73C66
:107C400049CF0E94763C809309020E94763C809343
:107C5000080280910C028E7F80930C020E94763C79
:107C6000853409F415C18091080290910902892B8D
:107C700089F000E010E00E94763CF801E85FFE4FDA
:107C800080830F5F1F4F80910802909109020817AF
:107C9000190788F30E94763C803209F045CF809125
:107CA0000C0280FF01C16091060170910701660F0F
:107CB000771F7093070160930601A0910802B091AD
:107CC00009021097C9F0E8E0F1E09B01AD014E0F09
:107CD0005F1FF999FECF32BD21BD819180BDFA9A17
:107CE000F99A2F5F3F4FE417F50799F76A0F7B1F4B
:107CF00070930701609306018091C00085FFFCCF5F
:107D0000F092C6008091C00085FFFCCFB092C60003
:107D1000E1CE83E00E94C73CDDCE82E00E94C73CFA
:107D2000D9CE0E94763C809309020E94763C8093D3
:107D300008028091060190910701880F991F909386
:107D40000701809306010E94763C853409F4A6C0A1
:107D500080910C028E7F80930C020E94763C8032D0
:107D600009F0B8CE8091C00085FFFCCFF092C6002C
:107D7000609108027091090261157105B9F140E046
:107D800050E080910C02A82FA170B82FB27011C0E2
:107D9000BB2309F45CC0E0910601F0910701319624
:107DA000F0930701E09306014F5F5F4F46175707B7
:107DB000E8F4AA2369F3F999FECF209106013091E6
:107DC000070132BD21BDF89A90B58091C00085FFB2
:107DD000FCCF9093C6002F5F3F4F30930701209355
:107DE00006014F5F5F4F4617570718F38091C00099
:107DF00085FDE5CE8091C00085FFF8CFE0CE81E023
:107E00000E94C73C67CE0E94763C803209F08CCE3F
:107E10008091C00085FFFCCFF092C6008091C00029
:107E200085FFFCCFE092C6008091C00085FFFCCFAB
:107E3000D092C6008091C00085FFFCCFC092C600E2
:107E40008091C00085FFFCCFB092C60043CEE09188
:107E50000601F091070194918091C00085FFFCCF4D
:107E60009093C6009CCF80E10E94C73C33CE0E9415
:107E7000763C0E94763C182F0E94763C112309F430
:107E800083C0113009F484C08FE00E94C73C22CE29
:107E900080910C02816080930C02E5CE80910C02EF
:107EA000816080930C0259CF809107018823880F4D
:107EB000880B8A2180930B02809106019091070123
:107EC000880F991F90930701809306018091080203
:107ED00080FF09C080910802909109020196909359
:107EE000090280930802F894F999FECF1127E091D6
:107EF0000601F0910701C8E0D1E08091080290915D
:107F00000902103091F40091570001700130D9F34B
:107F100003E000935700E89500915700017001308D
:107F2000D9F301E100935700E89509901990009169
:107F3000570001700130D9F301E000935700E89534
:107F40001395103498F011270091570001700130FB
:107F5000D9F305E000935700E895009157000170B0
:107F60000130D9F301E100935700E895329602976A
:107F700009F0C7CF103011F00296E5CF112480919F
:107F8000C00085FFB9CEBCCE8EE10E94C73CA2CD19
:0C7F900085E90E94C73C9ECDF894FFCF0D
:027F9C00800063
:040000030000780081
:00000001FF